{
  "transactions": [
    {
      "hash": null,
      "transactionType": "CREATE",
      "contractName": "SimpleDelegateContract",
      "contractAddress": "0x700b6a60ce7eaaea56f065753d8dcb9653dbad35",
      "function": null,
      "arguments": null,
      "transaction": {
        "from": "0xa0ee7a142d267c1f36714e4a8f75612f20a79720",
        "gas": "0x8b83a",
        "value": "0x0",
        "input": "0x608060405234801561000f575f80fd5b506106ff8061001d5f395ff3fe608060405260043610610021575f3560e01c8063a6d0ad611461002c57610028565b3661002857005b5f80fd5b610046600480360381019061004191906104dc565b610048565b005b5f5b8151811015610197575f82828151811061006757610066610523565b5b602002602001015190505f80826020015173ffffffffffffffffffffffffffffffffffffffff168360400151845f01516040516100a491906105bc565b5f6040518083038185875af1925050503d805f81146100de576040519150601f19603f3d011682016040523d82523d5f602084013e6100e3565b606091505b509150915081819061012b576040517f08c379a00000000000000000000000000000000000000000000000000000000081526004016101229190610624565b60405180910390fd5b50826020015173ffffffffffffffffffffffffffffffffffffffff167fcaf938de11c367272220bfd1d2baa99ca46665e7bc4d85f00adb51b90fe1fa9f8460400151855f015160405161017f92919061069b565b60405180910390a2505050808060010191505061004a565b5050565b5f604051905090565b5f80fd5b5f80fd5b5f80fd5b5f601f19601f8301169050919050565b7f4e487b71000000000000000000000000000000000000000000000000000000005f52604160045260245ffd5b6101f6826101b0565b810181811067ffffffffffffffff82111715610215576102146101c0565b5b80604052505050565b5f61022761019b565b905061023382826101ed565b919050565b5f67ffffffffffffffff821115610252576102516101c0565b5b602082029050602081019050919050565b5f80fd5b5f80fd5b5f80fd5b5f80fd5b5f67ffffffffffffffff82111561028d5761028c6101c0565b5b610296826101b0565b9050602081019050919050565b828183375f83830152505050565b5f6102c36102be84610273565b61021e565b9050828152602081018484840111156102df576102de61026f565b5b6102ea8482856102a3565b509392505050565b5f82601f830112610306576103056101ac565b5b81356103168482602086016102b1565b91505092915050565b5f73ffffffffffffffffffffffffffffffffffffffff82169050919050565b5f6103488261031f565b9050919050565b6103588161033e565b8114610362575f80fd5b50565b5f813590506103738161034f565b92915050565b5f819050919050565b61038b81610379565b8114610395575f80fd5b50565b5f813590506103a681610382565b92915050565b5f606082840312156103c1576103c0610267565b5b6103cb606061021e565b90505f82013567ffffffffffffffff8111156103ea576103e961026b565b5b6103f6848285016102f2565b5f83015250602061040984828501610365565b602083015250604061041d84828501610398565b60408301525092915050565b5f61043b61043684610238565b61021e565b9050808382526020820190506020840283018581111561045e5761045d610263565b5b835b818110156104a557803567ffffffffffffffff811115610483576104826101ac565b5b80860161049089826103ac565b85526020850194505050602081019050610460565b5050509392505050565b5f82601f8301126104c3576104c26101ac565b5b81356104d3848260208601610429565b91505092915050565b5f602082840312156104f1576104f06101a4565b5b5f82013567ffffffffffffffff81111561050e5761050d6101a8565b5b61051a848285016104af565b91505092915050565b7f4e487b71000000000000000000000000000000000000000000000000000000005f52603260045260245ffd5b5f81519050919050565b5f81905092915050565b5f5b83811015610581578082015181840152602081019050610566565b5f8484015250505050565b5f61059682610550565b6105a0818561055a565b93506105b0818560208601610564565b80840191505092915050565b5f6105c7828461058c565b915081905092915050565b5f81519050919050565b5f82825260208201905092915050565b5f6105f6826105d2565b61060081856105dc565b9350610610818560208601610564565b610619816101b0565b840191505092915050565b5f6020820190508181035f83015261063c81846105ec565b905092915050565b61064d81610379565b82525050565b5f82825260208201905092915050565b5f61066d82610550565b6106778185610653565b9350610687818560208601610564565b610690816101b0565b840191505092915050565b5f6040820190506106ae5f830185610644565b81810360208301526106c08184610663565b9050939250505056fea2646970667358221220e3e30a7f9accb21803ed422cebfb10f71fdd6d0fd89bd03059c291639cbfcf3664736f6c63430008180033",
        "nonce": "0x0",
        "chainId": "0xe3259"
      },
      "additionalContracts": [],
      "isFixedGasLimit": false
    },
    {
      "hash": null,
      "transactionType": "CALL",
      "contractName": null,
      "contractAddress": "0x70997970c51812dc3a010c7d01b50e0d17dc79c8",
      "function": "execute((bytes,address,uint256)[])",
      "arguments": [
        "[(0x94bf804d00000000000000000000000000000000000000000000000000000000000000640000000000000000000000003c44cdddb6a900fa2b585dd299e03d12fa4293bc, 0xC7f2Cf4845C6db0e1a1e91ED41Bcd0FcC1b0E141, 0)]"
      ],
      "transaction": {
        "from": "0x3c44cdddb6a900fa2b585dd299e03d12fa4293bc",
        "to": "0x70997970c51812dc3a010c7d01b50e0d17dc79c8",
        "gas": "0x1029d",
        "value": "0x0",
        "input": "0xa6d0ad610000000000000000000000000000000000000000000000000000000000000020000000000000000000000000000000000000000000000000000000000000000100000000000000000000000000000000000000000000000000000000000000200000000000000000000000000000000000000000000000000000000000000060000000000000000000000000c7f2cf4845c6db0e1a1e91ed41bcd0fcc1b0e1410000000000000000000000000000000000000000000000000000000000000000000000000000000000000000000000000000000000000000000000000000004494bf804d00000000000000000000000000000000000000000000000000000000000000640000000000000000000000003c44cdddb6a900fa2b585dd299e03d12fa4293bc00000000000000000000000000000000000000000000000000000000",
        "nonce": "0x0",
        "chainId": "0xe3259",
        "authorizationList": [
          {
            "chainId": "0xe3259",
            "address": "0x700b6a60ce7eaaea56f065753d8dcb9653dbad35",
            "nonce": "0x1",
            "yParity": "0x0",
            "r": "0x9901ba6b9046cd3e4983e9952dc20e03d641d0a76afe4d3420ffde796230410a",
            "s": "0x76b63ef4aa39ab903b0a91d6ea8d49d864d22b3a0caf54b88d0886efcb53cbae"
          }
        ]
      },
      "additionalContracts": [],
      "isFixedGasLimit": false
    }
  ],
  "receipts": [],
  "libraries": [],
  "pending": [],
  "returns": {},
  "timestamp": 1751025736,
  "chain": 930393,
  "commit": "323a7d8"
}